{
  "_format": "hh3-artifact-1",
  "contractName": "AirdropToken",
  "sourceName": "contracts/AirdropToken.sol",
  "abi": [
    {
      "inputs": [
        {
          "internalType": "string",
          "name": "name",
          "type": "string"
        },
        {
          "internalType": "string",
          "name": "symbol",
          "type": "string"
        },
        {
          "internalType": "uint8",
          "name": "decimals_",
          "type": "uint8"
        },
        {
          "internalType": "uint256",
          "name": "initialSupply",
          "type": "uint256"
        }
      ],
      "stateMutability": "nonpayable",
      "type": "constructor"
    },
    {
      "inputs": [
        {
          "internalType": "address",
          "name": "spender",
          "type": "address"
        },
        {
          "internalType": "uint256",
          "name": "allowance",
          "type": "uint256"
        },
        {
          "internalType": "uint256",
          "name": "needed",
          "type": "uint256"
        }
      ],
      "name": "ERC20InsufficientAllowance",
      "type": "error"
    },
    {
      "inputs": [
        {
          "internalType": "address",
          "name": "sender",
          "type": "address"
        },
        {
          "internalType": "uint256",
          "name": "balance",
          "type": "uint256"
        },
        {
          "internalType": "uint256",
          "name": "needed",
          "type": "uint256"
        }
      ],
      "name": "ERC20InsufficientBalance",
      "type": "error"
    },
    {
      "inputs": [
        {
          "internalType": "address",
          "name": "approver",
          "type": "address"
        }
      ],
      "name": "ERC20InvalidApprover",
      "type": "error"
    },
    {
      "inputs": [
        {
          "internalType": "address",
          "name": "receiver",
          "type": "address"
        }
      ],
      "name": "ERC20InvalidReceiver",
      "type": "error"
    },
    {
      "inputs": [
        {
          "internalType": "address",
          "name": "sender",
          "type": "address"
        }
      ],
      "name": "ERC20InvalidSender",
      "type": "error"
    },
    {
      "inputs": [
        {
          "internalType": "address",
          "name": "spender",
          "type": "address"
        }
      ],
      "name": "ERC20InvalidSpender",
      "type": "error"
    },
    {
      "inputs": [
        {
          "internalType": "address",
          "name": "owner",
          "type": "address"
        }
      ],
      "name": "OwnableInvalidOwner",
      "type": "error"
    },
    {
      "inputs": [
        {
          "internalType": "address",
          "name": "account",
          "type": "address"
        }
      ],
      "name": "OwnableUnauthorizedAccount",
      "type": "error"
    },
    {
      "anonymous": false,
      "inputs": [
        {
          "indexed": true,
          "internalType": "address",
          "name": "owner",
          "type": "address"
        },
        {
          "indexed": true,
          "internalType": "address",
          "name": "spender",
          "type": "address"
        },
        {
          "indexed": false,
          "internalType": "uint256",
          "name": "value",
          "type": "uint256"
        }
      ],
      "name": "Approval",
      "type": "event"
    },
    {
      "anonymous": false,
      "inputs": [
        {
          "indexed": true,
          "internalType": "address",
          "name": "previousOwner",
          "type": "address"
        },
        {
          "indexed": true,
          "internalType": "address",
          "name": "newOwner",
          "type": "address"
        }
      ],
      "name": "OwnershipTransferred",
      "type": "event"
    },
    {
      "anonymous": false,
      "inputs": [
        {
          "indexed": true,
          "internalType": "address",
          "name": "from",
          "type": "address"
        },
        {
          "indexed": true,
          "internalType": "address",
          "name": "to",
          "type": "address"
        },
        {
          "indexed": false,
          "internalType": "uint256",
          "name": "value",
          "type": "uint256"
        }
      ],
      "name": "Transfer",
      "type": "event"
    },
    {
      "inputs": [
        {
          "internalType": "address",
          "name": "owner",
          "type": "address"
        },
        {
          "internalType": "address",
          "name": "spender",
          "type": "address"
        }
      ],
      "name": "allowance",
      "outputs": [
        {
          "internalType": "uint256",
          "name": "",
          "type": "uint256"
        }
      ],
      "stateMutability": "view",
      "type": "function"
    },
    {
      "inputs": [
        {
          "internalType": "address",
          "name": "spender",
          "type": "address"
        },
        {
          "internalType": "uint256",
          "name": "value",
          "type": "uint256"
        }
      ],
      "name": "approve",
      "outputs": [
        {
          "internalType": "bool",
          "name": "",
          "type": "bool"
        }
      ],
      "stateMutability": "nonpayable",
      "type": "function"
    },
    {
      "inputs": [
        {
          "internalType": "address",
          "name": "account",
          "type": "address"
        }
      ],
      "name": "balanceOf",
      "outputs": [
        {
          "internalType": "uint256",
          "name": "",
          "type": "uint256"
        }
      ],
      "stateMutability": "view",
      "type": "function"
    },
    {
      "inputs": [
        {
          "internalType": "uint256",
          "name": "amount",
          "type": "uint256"
        }
      ],
      "name": "burn",
      "outputs": [],
      "stateMutability": "nonpayable",
      "type": "function"
    },
    {
      "inputs": [],
      "name": "decimals",
      "outputs": [
        {
          "internalType": "uint8",
          "name": "",
          "type": "uint8"
        }
      ],
      "stateMutability": "view",
      "type": "function"
    },
    {
      "inputs": [
        {
          "internalType": "address",
          "name": "to",
          "type": "address"
        },
        {
          "internalType": "uint256",
          "name": "amount",
          "type": "uint256"
        }
      ],
      "name": "mint",
      "outputs": [],
      "stateMutability": "nonpayable",
      "type": "function"
    },
    {
      "inputs": [],
      "name": "name",
      "outputs": [
        {
          "internalType": "string",
          "name": "",
          "type": "string"
        }
      ],
      "stateMutability": "view",
      "type": "function"
    },
    {
      "inputs": [],
      "name": "owner",
      "outputs": [
        {
          "internalType": "address",
          "name": "",
          "type": "address"
        }
      ],
      "stateMutability": "view",
      "type": "function"
    },
    {
      "inputs": [],
      "name": "renounceOwnership",
      "outputs": [],
      "stateMutability": "nonpayable",
      "type": "function"
    },
    {
      "inputs": [],
      "name": "symbol",
      "outputs": [
        {
          "internalType": "string",
          "name": "",
          "type": "string"
        }
      ],
      "stateMutability": "view",
      "type": "function"
    },
    {
      "inputs": [],
      "name": "totalSupply",
      "outputs": [
        {
          "internalType": "uint256",
          "name": "",
          "type": "uint256"
        }
      ],
      "stateMutability": "view",
      "type": "function"
    },
    {
      "inputs": [
        {
          "internalType": "address",
          "name": "to",
          "type": "address"
        },
        {
          "internalType": "uint256",
          "name": "value",
          "type": "uint256"
        }
      ],
      "name": "transfer",
      "outputs": [
        {
          "internalType": "bool",
          "name": "",
          "type": "bool"
        }
      ],
      "stateMutability": "nonpayable",
      "type": "function"
    },
    {
      "inputs": [
        {
          "internalType": "address",
          "name": "from",
          "type": "address"
        },
        {
          "internalType": "address",
          "name": "to",
          "type": "address"
        },
        {
          "internalType": "uint256",
          "name": "value",
          "type": "uint256"
        }
      ],
      "name": "transferFrom",
      "outputs": [
        {
          "internalType": "bool",
          "name": "",
          "type": "bool"
        }
      ],
      "stateMutability": "nonpayable",
      "type": "function"
    },
    {
      "inputs": [
        {
          "internalType": "address",
          "name": "newOwner",
          "type": "address"
        }
      ],
      "name": "transferOwnership",
      "outputs": [],
      "stateMutability": "nonpayable",
      "type": "function"
    }
  ],
  "bytecode": "0x608060405234801561000f575f5ffd5b50604051610e09380380610e0983398101604081905261002e91610302565b338484600361003d8382610409565b50600461004a8282610409565b5050506001600160a01b03811661007b57604051631e4fbdf760e01b81525f60048201526024015b60405180910390fd5b610084816100b6565b506005805460ff60a01b1916600160a01b60ff85160217905580156100ad576100ad3382610107565b505050506104e8565b600580546001600160a01b038381166001600160a01b0319831681179093556040519116919082907f8be0079c531659141344cd1fd0a4f28419497f9722a3daafe3b4186f6b6457e0905f90a35050565b6001600160a01b0382166101305760405163ec442f0560e01b81525f6004820152602401610072565b61013b5f838361013f565b5050565b6001600160a01b038316610169578060025f82825461015e91906104c3565b909155506101d99050565b6001600160a01b0383165f90815260208190526040902054818110156101bb5760405163391434e360e21b81526001600160a01b03851660048201526024810182905260448101839052606401610072565b6001600160a01b0384165f9081526020819052604090209082900390555b6001600160a01b0382166101f557600280548290039055610213565b6001600160a01b0382165f9081526020819052604090208054820190555b816001600160a01b0316836001600160a01b03167fddf252ad1be2c89b69c2b068fc378daa952ba7f163c4a11628f55a4df523b3ef8360405161025891815260200190565b60405180910390a3505050565b634e487b7160e01b5f52604160045260245ffd5b5f82601f830112610288575f5ffd5b81516001600160401b038111156102a1576102a1610265565b604051601f8201601f19908116603f011681016001600160401b03811182821017156102cf576102cf610265565b6040528181528382016020018510156102e6575f5ffd5b8160208501602083015e5f918101602001919091529392505050565b5f5f5f5f60808587031215610315575f5ffd5b84516001600160401b0381111561032a575f5ffd5b61033687828801610279565b602087015190955090506001600160401b03811115610353575f5ffd5b61035f87828801610279565b935050604085015160ff81168114610375575f5ffd5b6060959095015193969295505050565b600181811c9082168061039957607f821691505b6020821081036103b757634e487b7160e01b5f52602260045260245ffd5b50919050565b601f82111561040457805f5260205f20601f840160051c810160208510156103e25750805b601f840160051c820191505b81811015610401575f81556001016103ee565b50505b505050565b81516001600160401b0381111561042257610422610265565b610436816104308454610385565b846103bd565b6020601f821160018114610468575f83156104515750848201515b5f19600385901b1c1916600184901b178455610401565b5f84815260208120601f198516915b828110156104975787850151825560209485019460019092019101610477565b50848210156104b457868401515f19600387901b60f8161c191681555b50505050600190811b01905550565b808201808211156104e257634e487b7160e01b5f52601160045260245ffd5b92915050565b610914806104f55f395ff3fe608060405234801561000f575f5ffd5b50600436106100e5575f3560e01c806370a082311161008857806395d89b411161006357806395d89b41146101e1578063a9059cbb146101e9578063dd62ed3e146101fc578063f2fde38b14610234575f5ffd5b806370a0823114610196578063715018a6146101be5780638da5cb5b146101c6575f5ffd5b806323b872dd116100c357806323b872dd1461013c578063313ce5671461014f57806340c10f191461016e57806342966c6814610183575f5ffd5b806306fdde03146100e9578063095ea7b31461010757806318160ddd1461012a575b5f5ffd5b6100f1610247565b6040516100fe919061076d565b60405180910390f35b61011a6101153660046107bd565b6102d7565b60405190151581526020016100fe565b6002545b6040519081526020016100fe565b61011a61014a3660046107e5565b6102f0565b600554600160a01b900460ff1660405160ff90911681526020016100fe565b61018161017c3660046107bd565b610313565b005b61018161019136600461081f565b610329565b61012e6101a4366004610836565b6001600160a01b03165f9081526020819052604090205490565b610181610336565b6005546040516001600160a01b0390911681526020016100fe565b6100f1610349565b61011a6101f73660046107bd565b610358565b61012e61020a366004610856565b6001600160a01b039182165f90815260016020908152604080832093909416825291909152205490565b610181610242366004610836565b610365565b60606003805461025690610887565b80601f016020809104026020016040519081016040528092919081815260200182805461028290610887565b80156102cd5780601f106102a4576101008083540402835291602001916102cd565b820191905f5260205f20905b8154815290600101906020018083116102b057829003601f168201915b5050505050905090565b5f336102e48185856103a4565b60019150505b92915050565b5f336102fd8582856103b6565b610308858585610432565b506001949350505050565b61031b61048f565b61032582826104bc565b5050565b61033333826104f0565b50565b61033e61048f565b6103475f610524565b565b60606004805461025690610887565b5f336102e4818585610432565b61036d61048f565b6001600160a01b03811661039b57604051631e4fbdf760e01b81525f60048201526024015b60405180910390fd5b61033381610524565b6103b18383836001610575565b505050565b6001600160a01b038381165f908152600160209081526040808320938616835292905220545f1981101561042c578181101561041e57604051637dc7a0d960e11b81526001600160a01b03841660048201526024810182905260448101839052606401610392565b61042c84848484035f610575565b50505050565b6001600160a01b03831661045b57604051634b637e8f60e11b81525f6004820152602401610392565b6001600160a01b0382166104845760405163ec442f0560e01b81525f6004820152602401610392565b6103b1838383610647565b6005546001600160a01b031633146103475760405163118cdaa760e01b8152336004820152602401610392565b6001600160a01b0382166104e55760405163ec442f0560e01b81525f6004820152602401610392565b6103255f8383610647565b6001600160a01b03821661051957604051634b637e8f60e11b81525f6004820152602401610392565b610325825f83610647565b600580546001600160a01b038381166001600160a01b0319831681179093556040519116919082907f8be0079c531659141344cd1fd0a4f28419497f9722a3daafe3b4186f6b6457e0905f90a35050565b6001600160a01b03841661059e5760405163e602df0560e01b81525f6004820152602401610392565b6001600160a01b0383166105c757604051634a1406b160e11b81525f6004820152602401610392565b6001600160a01b038085165f908152600160209081526040808320938716835292905220829055801561042c57826001600160a01b0316846001600160a01b03167f8c5be1e5ebec7d5bd14f71427d1e84f3dd0314c0f7b2291e5b200ac8c7c3b9258460405161063991815260200190565b60405180910390a350505050565b6001600160a01b038316610671578060025f82825461066691906108bf565b909155506106e19050565b6001600160a01b0383165f90815260208190526040902054818110156106c35760405163391434e360e21b81526001600160a01b03851660048201526024810182905260448101839052606401610392565b6001600160a01b0384165f9081526020819052604090209082900390555b6001600160a01b0382166106fd5760028054829003905561071b565b6001600160a01b0382165f9081526020819052604090208054820190555b816001600160a01b0316836001600160a01b03167fddf252ad1be2c89b69c2b068fc378daa952ba7f163c4a11628f55a4df523b3ef8360405161076091815260200190565b60405180910390a3505050565b602081525f82518060208401528060208501604085015e5f604082850101526040601f19601f83011684010191505092915050565b80356001600160a01b03811681146107b8575f5ffd5b919050565b5f5f604083850312156107ce575f5ffd5b6107d7836107a2565b946020939093013593505050565b5f5f5f606084860312156107f7575f5ffd5b610800846107a2565b925061080e602085016107a2565b929592945050506040919091013590565b5f6020828403121561082f575f5ffd5b5035919050565b5f60208284031215610846575f5ffd5b61084f826107a2565b9392505050565b5f5f60408385031215610867575f5ffd5b610870836107a2565b915061087e602084016107a2565b90509250929050565b600181811c9082168061089b57607f821691505b6020821081036108b957634e487b7160e01b5f52602260045260245ffd5b50919050565b808201808211156102ea57634e487b7160e01b5f52601160045260245ffdfea264697066735822122063129728a8aea2771bdc951752bafd8eff48e1f423a32feb65180ce42649cb0164736f6c634300081c0033",
  "linkReferences": {},
  "deployedLinkReferences": {},
  "immutableReferences": {},
  "inputSourceName": "project/contracts/AirdropToken.sol",
  "buildInfoId": "solc-0_8_28-8d8c0672928a611d78c6eba5a02608180512bbdc"
}